{
  "contractName": "SimpleStorage",
  "abi": [
    {
      "constant": false,
      "inputs": [
        {
          "name": "x",
          "type": "uint256"
        }
      ],
      "name": "setFavorite",
      "outputs": [],
      "payable": false,
      "stateMutability": "nonpayable",
      "type": "function"
    },
    {
      "constant": true,
      "inputs": [
        {
          "name": "",
          "type": "address"
        }
      ],
      "name": "favoriteNumbers",
      "outputs": [
        {
          "name": "",
          "type": "uint256"
        }
      ],
      "payable": false,
      "stateMutability": "view",
      "type": "function"
    }
  ],
  "bytecode": "0x6060604052341561000f57600080fd5b61014b8061001e6000396000f30060606040526004361061004c576000357c0100000000000000000000000000000000000000000000000000000000900463ffffffff1680634b24c0a9146100515780638afd775a14610074575b600080fd5b341561005c57600080fd5b61007260048080359060200190919050506100c1565b005b341561007f57600080fd5b6100ab600480803573ffffffffffffffffffffffffffffffffffffffff16906020019091905050610107565b6040518082815260200191505060405180910390f35b806000803373ffffffffffffffffffffffffffffffffffffffff1673ffffffffffffffffffffffffffffffffffffffff1681526020019081526020016000208190555050565b600060205280600052604060002060009150905054815600a165627a7a723058207f43912515beaa6a1989b233628683aea2ebc7827533e8c317fecea8df1fd31b0029",
  "source": "\npragma solidity ^0.4.17;\n\ncontract SimpleStorage {\n  mapping(address => uint256) public favoriteNumbers;\n\n  function setFavorite(uint x) public {\n    favoriteNumbers[msg.sender] = x;\n  }\n}",
  "sourcePath": "/Users/jdelong/Google Drive/Dev/Sandbox/Hello Contract/contracts/SimpleStorage.sol",
  "compiler": {
    "name": "solc",
    "version": "0.4.18+commit.9cf6e910.Emscripten.clang"
  },
  "schemaVersion": "1.0.1",
  "updatedAt": "2018-04-27T20:08:43.943Z"
}